{
  "contractName": "GradCoin",
  "abi": [
    {
      "inputs": [],
      "stateMutability": "nonpayable",
      "type": "constructor"
    },
    {
      "anonymous": false,
      "inputs": [
        {
          "indexed": true,
          "internalType": "address",
          "name": "owner",
          "type": "address"
        },
        {
          "indexed": true,
          "internalType": "address",
          "name": "approved",
          "type": "address"
        },
        {
          "indexed": true,
          "internalType": "uint256",
          "name": "tokenId",
          "type": "uint256"
        }
      ],
      "name": "Approval",
      "type": "event"
    },
    {
      "anonymous": false,
      "inputs": [
        {
          "indexed": true,
          "internalType": "address",
          "name": "owner",
          "type": "address"
        },
        {
          "indexed": true,
          "internalType": "address",
          "name": "operator",
          "type": "address"
        },
        {
          "indexed": false,
          "internalType": "bool",
          "name": "approved",
          "type": "bool"
        }
      ],
      "name": "ApprovalForAll",
      "type": "event"
    },
    {
      "anonymous": false,
      "inputs": [
        {
          "indexed": true,
          "internalType": "address",
          "name": "previousOwner",
          "type": "address"
        },
        {
          "indexed": true,
          "internalType": "address",
          "name": "newOwner",
          "type": "address"
        }
      ],
      "name": "OwnershipTransferred",
      "type": "event"
    },
    {
      "anonymous": false,
      "inputs": [
        {
          "indexed": true,
          "internalType": "address",
          "name": "from",
          "type": "address"
        },
        {
          "indexed": true,
          "internalType": "address",
          "name": "to",
          "type": "address"
        },
        {
          "indexed": true,
          "internalType": "uint256",
          "name": "tokenId",
          "type": "uint256"
        }
      ],
      "name": "Transfer",
      "type": "event"
    },
    {
      "inputs": [],
      "name": "BestStudent",
      "outputs": [
        {
          "internalType": "address",
          "name": "",
          "type": "address"
        }
      ],
      "stateMutability": "view",
      "type": "function",
      "constant": true
    },
    {
      "inputs": [
        {
          "internalType": "address",
          "name": "to",
          "type": "address"
        },
        {
          "internalType": "uint256",
          "name": "tokenId",
          "type": "uint256"
        }
      ],
      "name": "approve",
      "outputs": [],
      "stateMutability": "nonpayable",
      "type": "function"
    },
    {
      "inputs": [
        {
          "internalType": "address",
          "name": "owner",
          "type": "address"
        }
      ],
      "name": "balanceOf",
      "outputs": [
        {
          "internalType": "uint256",
          "name": "",
          "type": "uint256"
        }
      ],
      "stateMutability": "view",
      "type": "function",
      "constant": true
    },
    {
      "inputs": [
        {
          "internalType": "uint256",
          "name": "tokenId",
          "type": "uint256"
        }
      ],
      "name": "getApproved",
      "outputs": [
        {
          "internalType": "address",
          "name": "",
          "type": "address"
        }
      ],
      "stateMutability": "view",
      "type": "function",
      "constant": true
    },
    {
      "inputs": [],
      "name": "highestCGPA",
      "outputs": [
        {
          "internalType": "uint256",
          "name": "",
          "type": "uint256"
        }
      ],
      "stateMutability": "view",
      "type": "function",
      "constant": true
    },
    {
      "inputs": [
        {
          "internalType": "address",
          "name": "owner",
          "type": "address"
        },
        {
          "internalType": "address",
          "name": "operator",
          "type": "address"
        }
      ],
      "name": "isApprovedForAll",
      "outputs": [
        {
          "internalType": "bool",
          "name": "",
          "type": "bool"
        }
      ],
      "stateMutability": "view",
      "type": "function",
      "constant": true
    },
    {
      "inputs": [],
      "name": "name",
      "outputs": [
        {
          "internalType": "string",
          "name": "",
          "type": "string"
        }
      ],
      "stateMutability": "view",
      "type": "function",
      "constant": true
    },
    {
      "inputs": [],
      "name": "owner",
      "outputs": [
        {
          "internalType": "address",
          "name": "",
          "type": "address"
        }
      ],
      "stateMutability": "view",
      "type": "function",
      "constant": true
    },
    {
      "inputs": [
        {
          "internalType": "uint256",
          "name": "tokenId",
          "type": "uint256"
        }
      ],
      "name": "ownerOf",
      "outputs": [
        {
          "internalType": "address",
          "name": "",
          "type": "address"
        }
      ],
      "stateMutability": "view",
      "type": "function",
      "constant": true
    },
    {
      "inputs": [],
      "name": "professor",
      "outputs": [
        {
          "internalType": "address",
          "name": "",
          "type": "address"
        }
      ],
      "stateMutability": "view",
      "type": "function",
      "constant": true
    },
    {
      "inputs": [],
      "name": "renounceOwnership",
      "outputs": [],
      "stateMutability": "nonpayable",
      "type": "function"
    },
    {
      "inputs": [
        {
          "internalType": "address",
          "name": "from",
          "type": "address"
        },
        {
          "internalType": "address",
          "name": "to",
          "type": "address"
        },
        {
          "internalType": "uint256",
          "name": "tokenId",
          "type": "uint256"
        }
      ],
      "name": "safeTransferFrom",
      "outputs": [],
      "stateMutability": "nonpayable",
      "type": "function"
    },
    {
      "inputs": [
        {
          "internalType": "address",
          "name": "from",
          "type": "address"
        },
        {
          "internalType": "address",
          "name": "to",
          "type": "address"
        },
        {
          "internalType": "uint256",
          "name": "tokenId",
          "type": "uint256"
        },
        {
          "internalType": "bytes",
          "name": "data",
          "type": "bytes"
        }
      ],
      "name": "safeTransferFrom",
      "outputs": [],
      "stateMutability": "nonpayable",
      "type": "function"
    },
    {
      "inputs": [
        {
          "internalType": "address",
          "name": "operator",
          "type": "address"
        },
        {
          "internalType": "bool",
          "name": "approved",
          "type": "bool"
        }
      ],
      "name": "setApprovalForAll",
      "outputs": [],
      "stateMutability": "nonpayable",
      "type": "function"
    },
    {
      "inputs": [
        {
          "internalType": "address",
          "name": "",
          "type": "address"
        }
      ],
      "name": "students",
      "outputs": [
        {
          "internalType": "string",
          "name": "name",
          "type": "string"
        },
        {
          "internalType": "uint256",
          "name": "cgpa",
          "type": "uint256"
        },
        {
          "internalType": "uint256",
          "name": "tokenBalance",
          "type": "uint256"
        }
      ],
      "stateMutability": "view",
      "type": "function",
      "constant": true
    },
    {
      "inputs": [
        {
          "internalType": "bytes4",
          "name": "interfaceId",
          "type": "bytes4"
        }
      ],
      "name": "supportsInterface",
      "outputs": [
        {
          "internalType": "bool",
          "name": "",
          "type": "bool"
        }
      ],
      "stateMutability": "view",
      "type": "function",
      "constant": true
    },
    {
      "inputs": [],
      "name": "symbol",
      "outputs": [
        {
          "internalType": "string",
          "name": "",
          "type": "string"
        }
      ],
      "stateMutability": "view",
      "type": "function",
      "constant": true
    },
    {
      "inputs": [
        {
          "internalType": "uint256",
          "name": "tokenId",
          "type": "uint256"
        }
      ],
      "name": "tokenURI",
      "outputs": [
        {
          "internalType": "string",
          "name": "",
          "type": "string"
        }
      ],
      "stateMutability": "view",
      "type": "function",
      "constant": true
    },
    {
      "inputs": [
        {
          "internalType": "address",
          "name": "from",
          "type": "address"
        },
        {
          "internalType": "address",
          "name": "to",
          "type": "address"
        },
        {
          "internalType": "uint256",
          "name": "tokenId",
          "type": "uint256"
        }
      ],
      "name": "transferFrom",
      "outputs": [],
      "stateMutability": "nonpayable",
      "type": "function"
    },
    {
      "inputs": [
        {
          "internalType": "address",
          "name": "newOwner",
          "type": "address"
        }
      ],
      "name": "transferOwnership",
      "outputs": [],
      "stateMutability": "nonpayable",
      "type": "function"
    },
    {
      "inputs": [
        {
          "internalType": "string",
          "name": "name",
          "type": "string"
        },
        {
          "internalType": "address",
          "name": "studentAddress",
          "type": "address"
        },
        {
          "internalType": "uint8",
          "name": "cgpa",
          "type": "uint8"
        }
      ],
      "name": "GradCoinTransfer",
      "outputs": [],
      "stateMutability": "nonpayable",
      "type": "function"
    },
    {
      "inputs": [
        {
          "internalType": "address",
          "name": "studentAddress",
          "type": "address"
        }
      ],
      "name": "getStudentBalance",
      "outputs": [
        {
          "internalType": "uint256",
          "name": "GradCoin",
          "type": "uint256"
        }
      ],
      "stateMutability": "view",
      "type": "function",
      "constant": true
    },
    {
      "inputs": [],
      "name": "getHighestCGPA",
      "outputs": [
        {
          "internalType": "uint256",
          "name": "",
          "type": "uint256"
        }
      ],
      "stateMutability": "view",
      "type": "function",
      "constant": true
    },
    {
      "inputs": [],
      "name": "getBestStudent",
      "outputs": [
        {
          "internalType": "string",
          "name": "",
          "type": "string"
        },
        {
          "internalType": "uint256",
          "name": "",
          "type": "uint256"
        }
      ],
      "stateMutability": "view",
      "type": "function",
      "constant": true
    },
    {
      "inputs": [],
      "name": "getAverageCGPA",
      "outputs": [
        {
          "internalType": "uint256",
          "name": "",
          "type": "uint256"
        }
      ],
      "stateMutability": "view",
      "type": "function",
      "constant": true
    }
  ],
  "bytecode": "0x608060405234801562000010575f80fd5b506040518060400160405280600881526020017f47726164436f696e0000000000000000000000000000000000000000000000008152506040518060400160405280600281526020017f4743000000000000000000000000000000000000000000000000000000000000815250815f90816200008d919062000436565b5080600190816200009f919062000436565b505050620000c2620000b66200010860201b60201c565b6200010f60201b60201c565b33600b5f6101000a81548173ffffffffffffffffffffffffffffffffffffffff021916908373ffffffffffffffffffffffffffffffffffffffff1602179055506200051a565b5f33905090565b5f60065f9054906101000a900473ffffffffffffffffffffffffffffffffffffffff1690508160065f6101000a81548173ffffffffffffffffffffffffffffffffffffffff021916908373ffffffffffffffffffffffffffffffffffffffff1602179055508173ffffffffffffffffffffffffffffffffffffffff168173ffffffffffffffffffffffffffffffffffffffff167f8be0079c531659141344cd1fd0a4f28419497f9722a3daafe3b4186f6b6457e060405160405180910390a35050565b5f81519050919050565b7f4e487b71000000000000000000000000000000000000000000000000000000005f52604160045260245ffd5b7f4e487b71000000000000000000000000000000000000000000000000000000005f52602260045260245ffd5b5f60028204905060018216806200024e57607f821691505b60208210810362000264576200026362000209565b5b50919050565b5f819050815f5260205f209050919050565b5f6020601f8301049050919050565b5f82821b905092915050565b5f60088302620002c87fffffffffffffffffffffffffffffffffffffffffffffffffffffffffffffffff826200028b565b620002d486836200028b565b95508019841693508086168417925050509392505050565b5f819050919050565b5f819050919050565b5f6200031e620003186200031284620002ec565b620002f5565b620002ec565b9050919050565b5f819050919050565b6200033983620002fe565b62000351620003488262000325565b84845462000297565b825550505050565b5f90565b6200036762000359565b620003748184846200032e565b505050565b5b818110156200039b576200038f5f826200035d565b6001810190506200037a565b5050565b601f821115620003ea57620003b4816200026a565b620003bf846200027c565b81016020851015620003cf578190505b620003e7620003de856200027c565b83018262000379565b50505b505050565b5f82821c905092915050565b5f6200040c5f1984600802620003ef565b1980831691505092915050565b5f620004268383620003fb565b9150826002028217905092915050565b6200044182620001d2565b67ffffffffffffffff8111156200045d576200045c620001dc565b5b62000469825462000236565b620004768282856200039f565b5f60209050601f831160018114620004ac575f841562000497578287015190505b620004a3858262000419565b86555062000512565b601f198416620004bc866200026a565b5f5b82811015620004e557848901518255600182019150602085019450602081019050620004be565b8683101562000505578489015162000501601f891682620003fb565b8355505b6001600288020188555050505b505050505050565b6132a080620005285f395ff3fe608060405234801561000f575f80fd5b5060043610610171575f3560e01c806376e0e10e116100dc578063a57d808611610095578063c87b56dd1161006f578063c87b56dd1461043a578063e28422f71461046a578063e985e9c514610488578063f2fde38b146104b857610171565b8063a57d8086146103ce578063a6c807a9146103ec578063b88d4fde1461041e57610171565b806376e0e10e1461031d578063833ea7971461033c5780638da5cb5b146103585780638dcdb43f1461037657806395d89b4114610394578063a22cb465146103b257610171565b8063308b10681161012e578063308b10681461025b57806342842e0e146102795780635113940d146102955780636352211e146102b357806370a08231146102e3578063715018a61461031357610171565b806301ffc9a71461017557806306fdde03146101a5578063081812fc146101c357806308b9ddd8146101f3578063095ea7b31461022357806323b872dd1461023f575b5f80fd5b61018f600480360381019061018a919061208a565b6104d4565b60405161019c91906120cf565b60405180910390f35b6101ad6105b5565b6040516101ba9190612172565b60405180910390f35b6101dd60048036038101906101d891906121c5565b610644565b6040516101ea919061222f565b60405180910390f35b61020d60048036038101906102089190612272565b610686565b60405161021a91906122ac565b60405180910390f35b61023d600480360381019061023891906122c5565b610780565b005b61025960048036038101906102549190612303565b610896565b005b6102636108f6565b60405161027091906122ac565b60405180910390f35b610293600480360381019061028e9190612303565b6109be565b005b61029d6109dd565b6040516102aa919061222f565b60405180910390f35b6102cd60048036038101906102c891906121c5565b610a02565b6040516102da919061222f565b60405180910390f35b6102fd60048036038101906102f89190612272565b610a86565b60405161030a91906122ac565b60405180910390f35b61031b610b3a565b005b610325610b4d565b604051610333929190612353565b60405180910390f35b610356600480360381019061035191906124e3565b610ce3565b005b610360611026565b60405161036d919061222f565b60405180910390f35b61037e61104e565b60405161038b91906122ac565b60405180910390f35b61039c611054565b6040516103a99190612172565b60405180910390f35b6103cc60048036038101906103c79190612579565b6110e4565b005b6103d66110fa565b6040516103e391906122ac565b60405180910390f35b61040660048036038101906104019190612272565b611103565b604051610415939291906125b7565b60405180910390f35b61043860048036038101906104339190612691565b6111af565b005b610454600480360381019061044f91906121c5565b611211565b6040516104619190612172565b60405180910390f35b610472611276565b60405161047f919061222f565b60405180910390f35b6104a2600480360381019061049d9190612711565b61129b565b6040516104af91906120cf565b60405180910390f35b6104d260048036038101906104cd9190612272565b611329565b005b5f7f80ac58cd000000000000000000000000000000000000000000000000000000007bffffffffffffffffffffffffffffffffffffffffffffffffffffffff1916827bffffffffffffffffffffffffffffffffffffffffffffffffffffffff1916148061059e57507f5b5e139f000000000000000000000000000000000000000000000000000000007bffffffffffffffffffffffffffffffffffffffffffffffffffffffff1916827bffffffffffffffffffffffffffffffffffffffffffffffffffffffff1916145b806105ae57506105ad826113ab565b5b9050919050565b60605f80546105c39061277c565b80601f01602080910402602001604051908101604052809291908181526020018280546105ef9061277c565b801561063a5780601f106106115761010080835404028352916020019161063a565b820191905f5260205f20905b81548152906001019060200180831161061d57829003601f168201915b5050505050905090565b5f61064e82611414565b60045f8381526020019081526020015f205f9054906101000a900473ffffffffffffffffffffffffffffffffffffffff169050919050565b5f805f90505f5b600880549050811015610776575f600882815481106106af576106ae6127ac565b5b905f5260205f20015f9054906101000a900473ffffffffffffffffffffffffffffffffffffffff1690508473ffffffffffffffffffffffffffffffffffffffff168173ffffffffffffffffffffffffffffffffffffffff16036107625761075f60075f8373ffffffffffffffffffffffffffffffffffffffff1673ffffffffffffffffffffffffffffffffffffffff1681526020019081526020015f20600201548461145f90919063ffffffff16565b92505b50808061076e90612806565b91505061068d565b5080915050919050565b5f61078a82610a02565b90508073ffffffffffffffffffffffffffffffffffffffff168373ffffffffffffffffffffffffffffffffffffffff16036107fa576040517f08c379a00000000000000000000000000000000000000000000000000000000081526004016107f1906128bd565b60405180910390fd5b8073ffffffffffffffffffffffffffffffffffffffff16610819611474565b73ffffffffffffffffffffffffffffffffffffffff161480610848575061084781610842611474565b61129b565b5b610887576040517f08c379a000000000000000000000000000000000000000000000000000000000815260040161087e9061294b565b60405180910390fd5b610891838361147b565b505050565b6108a76108a1611474565b82611531565b6108e6576040517f08c379a00000000000000000000000000000000000000000000000000000000081526004016108dd906129d9565b60405180910390fd5b6108f18383836115c5565b505050565b5f805f90505f5b6008805490508110156109a65760075f60088381548110610921576109206127ac565b5b905f5260205f20015f9054906101000a900473ffffffffffffffffffffffffffffffffffffffff1673ffffffffffffffffffffffffffffffffffffffff1673ffffffffffffffffffffffffffffffffffffffff1681526020019081526020015f20600101548261099191906129f7565b9150808061099e90612806565b9150506108fd565b50600880549050816109b89190612a57565b91505090565b6109d883838360405180602001604052805f8152506111af565b505050565b600b5f9054906101000a900473ffffffffffffffffffffffffffffffffffffffff1681565b5f80610a0d836118b1565b90505f73ffffffffffffffffffffffffffffffffffffffff168173ffffffffffffffffffffffffffffffffffffffff1603610a7d576040517f08c379a0000000000000000000000000000000000000000000000000000000008152600401610a7490612ad1565b60405180910390fd5b80915050919050565b5f8073ffffffffffffffffffffffffffffffffffffffff168273ffffffffffffffffffffffffffffffffffffffff1603610af5576040517f08c379a0000000000000000000000000000000000000000000000000000000008152600401610aec90612b5f565b60405180910390fd5b60035f8373ffffffffffffffffffffffffffffffffffffffff1673ffffffffffffffffffffffffffffffffffffffff1681526020019081526020015f20549050919050565b610b426118ea565b610b4b5f611968565b565b60605f805f90505f805f90505b600880549050811015610c0e575f60088281548110610b7c57610b7b6127ac565b5b905f5260205f20015f9054906101000a900473ffffffffffffffffffffffffffffffffffffffff1690505f60075f8373ffffffffffffffffffffffffffffffffffffffff1673ffffffffffffffffffffffffffffffffffffffff1681526020019081526020015f2060010154905084811115610bf9578094508193505b50508080610c0690612806565b915050610b5a565b5060075f8273ffffffffffffffffffffffffffffffffffffffff1673ffffffffffffffffffffffffffffffffffffffff1681526020019081526020015f205f0182818054610c5b9061277c565b80601f0160208091040260200160405190810160405280929190818152602001828054610c879061277c565b8015610cd25780601f10610ca957610100808354040283529160200191610cd2565b820191905f5260205f20905b815481529060010190602001808311610cb557829003601f168201915b505050505091509350935050509091565b5f60038260ff1610610d2557610d1e655af3107a4000610d10600a8560ff16611a2b90919063ffffffff16565b611a2b90919063ffffffff16565b9050610dfd565b60028260ff1610158015610d3c575060038260ff16105b15610d7757610d70655af3107a4000610d6260078560ff16611a2b90919063ffffffff16565b611a2b90919063ffffffff16565b9050610dfc565b60018260ff1610158015610d8e575060028260ff16105b15610dc957610dc2655af3107a4000610db460058560ff16611a2b90919063ffffffff16565b611a2b90919063ffffffff16565b9050610dfb565b610df8655af3107a4000610dea60148560ff16611a2b90919063ffffffff16565b611a2b90919063ffffffff16565b90505b5b5b5f60075f8573ffffffffffffffffffffffffffffffffffffffff1673ffffffffffffffffffffffffffffffffffffffff1681526020019081526020015f20600101541115610ee157610e988160075f8673ffffffffffffffffffffffffffffffffffffffff1673ffffffffffffffffffffffffffffffffffffffff1681526020019081526020015f206002015461145f90919063ffffffff16565b60075f8573ffffffffffffffffffffffffffffffffffffffff1673ffffffffffffffffffffffffffffffffffffffff1681526020019081526020015f2060020181905550610fc8565b60405180606001604052808581526020018360ff1681526020018281525060075f8573ffffffffffffffffffffffffffffffffffffffff1673ffffffffffffffffffffffffffffffffffffffff1681526020019081526020015f205f820151815f019081610f4f9190612d1a565b506020820151816001015560408201518160020155905050600883908060018154018082558091505060019003905f5260205f20015f9091909190916101000a81548173ffffffffffffffffffffffffffffffffffffffff021916908373ffffffffffffffffffffffffffffffffffffffff1602179055505b6009548260ff161115611020578160ff1660098190555082600a5f6101000a81548173ffffffffffffffffffffffffffffffffffffffff021916908373ffffffffffffffffffffffffffffffffffffffff1602179055505b50505050565b5f60065f9054906101000a900473ffffffffffffffffffffffffffffffffffffffff16905090565b60095481565b6060600180546110639061277c565b80601f016020809104026020016040519081016040528092919081815260200182805461108f9061277c565b80156110da5780601f106110b1576101008083540402835291602001916110da565b820191905f5260205f20905b8154815290600101906020018083116110bd57829003601f168201915b5050505050905090565b6110f66110ef611474565b8383611a40565b5050565b5f600954905090565b6007602052805f5260405f205f91509050805f0180546111229061277c565b80601f016020809104026020016040519081016040528092919081815260200182805461114e9061277c565b80156111995780601f1061117057610100808354040283529160200191611199565b820191905f5260205f20905b81548152906001019060200180831161117c57829003601f168201915b5050505050908060010154908060020154905083565b6111c06111ba611474565b83611531565b6111ff576040517f08c379a00000000000000000000000000000000000000000000000000000000081526004016111f6906129d9565b60405180910390fd5b61120b84848484611ba7565b50505050565b606061121c82611414565b5f611225611c03565b90505f8151116112435760405180602001604052805f81525061126e565b8061124d84611c19565b60405160200161125e929190612e23565b6040516020818303038152906040525b915050919050565b600a5f9054906101000a900473ffffffffffffffffffffffffffffffffffffffff1681565b5f60055f8473ffffffffffffffffffffffffffffffffffffffff1673ffffffffffffffffffffffffffffffffffffffff1681526020019081526020015f205f8373ffffffffffffffffffffffffffffffffffffffff1673ffffffffffffffffffffffffffffffffffffffff1681526020019081526020015f205f9054906101000a900460ff16905092915050565b6113316118ea565b5f73ffffffffffffffffffffffffffffffffffffffff168173ffffffffffffffffffffffffffffffffffffffff160361139f576040517f08c379a000000000000000000000000000000000000000000000000000000000815260040161139690612eb6565b60405180910390fd5b6113a881611968565b50565b5f7f01ffc9a7000000000000000000000000000000000000000000000000000000007bffffffffffffffffffffffffffffffffffffffffffffffffffffffff1916827bffffffffffffffffffffffffffffffffffffffffffffffffffffffff1916149050919050565b61141d81611ce3565b61145c576040517f08c379a000000000000000000000000000000000000000000000000000000000815260040161145390612ad1565b60405180910390fd5b50565b5f818361146c91906129f7565b905092915050565b5f33905090565b8160045f8381526020019081526020015f205f6101000a81548173ffffffffffffffffffffffffffffffffffffffff021916908373ffffffffffffffffffffffffffffffffffffffff160217905550808273ffffffffffffffffffffffffffffffffffffffff166114eb83610a02565b73ffffffffffffffffffffffffffffffffffffffff167f8c5be1e5ebec7d5bd14f71427d1e84f3dd0314c0f7b2291e5b200ac8c7c3b92560405160405180910390a45050565b5f8061153c83610a02565b90508073ffffffffffffffffffffffffffffffffffffffff168473ffffffffffffffffffffffffffffffffffffffff16148061157e575061157d818561129b565b5b806115bc57508373ffffffffffffffffffffffffffffffffffffffff166115a484610644565b73ffffffffffffffffffffffffffffffffffffffff16145b91505092915050565b8273ffffffffffffffffffffffffffffffffffffffff166115e582610a02565b73ffffffffffffffffffffffffffffffffffffffff161461163b576040517f08c379a000000000000000000000000000000000000000000000000000000000815260040161163290612f44565b60405180910390fd5b5f73ffffffffffffffffffffffffffffffffffffffff168273ffffffffffffffffffffffffffffffffffffffff16036116a9576040517f08c379a00000000000000000000000000000000000000000000000000000000081526004016116a090612fd2565b60405180910390fd5b6116b68383836001611d23565b8273ffffffffffffffffffffffffffffffffffffffff166116d682610a02565b73ffffffffffffffffffffffffffffffffffffffff161461172c576040517f08c379a000000000000000000000000000000000000000000000000000000000815260040161172390612f44565b60405180910390fd5b60045f8281526020019081526020015f205f6101000a81549073ffffffffffffffffffffffffffffffffffffffff0219169055600160035f8573ffffffffffffffffffffffffffffffffffffffff1673ffffffffffffffffffffffffffffffffffffffff1681526020019081526020015f205f8282540392505081905550600160035f8473ffffffffffffffffffffffffffffffffffffffff1673ffffffffffffffffffffffffffffffffffffffff1681526020019081526020015f205f82825401925050819055508160025f8381526020019081526020015f205f6101000a81548173ffffffffffffffffffffffffffffffffffffffff021916908373ffffffffffffffffffffffffffffffffffffffff160217905550808273ffffffffffffffffffffffffffffffffffffffff168473ffffffffffffffffffffffffffffffffffffffff167fddf252ad1be2c89b69c2b068fc378daa952ba7f163c4a11628f55a4df523b3ef60405160405180910390a46118ac8383836001611d29565b505050565b5f60025f8381526020019081526020015f205f9054906101000a900473ffffffffffffffffffffffffffffffffffffffff169050919050565b6118f2611474565b73ffffffffffffffffffffffffffffffffffffffff16611910611026565b73ffffffffffffffffffffffffffffffffffffffff1614611966576040517f08c379a000000000000000000000000000000000000000000000000000000000815260040161195d9061303a565b60405180910390fd5b565b5f60065f9054906101000a900473ffffffffffffffffffffffffffffffffffffffff1690508160065f6101000a81548173ffffffffffffffffffffffffffffffffffffffff021916908373ffffffffffffffffffffffffffffffffffffffff1602179055508173ffffffffffffffffffffffffffffffffffffffff168173ffffffffffffffffffffffffffffffffffffffff167f8be0079c531659141344cd1fd0a4f28419497f9722a3daafe3b4186f6b6457e060405160405180910390a35050565b5f8183611a389190613058565b905092915050565b8173ffffffffffffffffffffffffffffffffffffffff168373ffffffffffffffffffffffffffffffffffffffff1603611aae576040517f08c379a0000000000000000000000000000000000000000000000000000000008152600401611aa5906130e3565b60405180910390fd5b8060055f8573ffffffffffffffffffffffffffffffffffffffff1673ffffffffffffffffffffffffffffffffffffffff1681526020019081526020015f205f8473ffffffffffffffffffffffffffffffffffffffff1673ffffffffffffffffffffffffffffffffffffffff1681526020019081526020015f205f6101000a81548160ff0219169083151502179055508173ffffffffffffffffffffffffffffffffffffffff168373ffffffffffffffffffffffffffffffffffffffff167f17307eab39ab6107e8899845ad3d59bd9653f200f220920489ca2b5937696c3183604051611b9a91906120cf565b60405180910390a3505050565b611bb28484846115c5565b611bbe84848484611d2f565b611bfd576040517f08c379a0000000000000000000000000000000000000000000000000000000008152600401611bf490613171565b60405180910390fd5b50505050565b606060405180602001604052805f815250905090565b60605f6001611c2784611eb1565b0190505f8167ffffffffffffffff811115611c4557611c44612389565b5b6040519080825280601f01601f191660200182016040528015611c775781602001600182028036833780820191505090505b5090505f82602001820190505b600115611cd8578080600190039150507f3031323334353637383961626364656600000000000000000000000000000000600a86061a8153600a8581611ccd57611ccc612a2a565b5b0494505f8503611c84575b819350505050919050565b5f8073ffffffffffffffffffffffffffffffffffffffff16611d04836118b1565b73ffffffffffffffffffffffffffffffffffffffff1614159050919050565b50505050565b50505050565b5f611d4f8473ffffffffffffffffffffffffffffffffffffffff16612002565b15611ea4578373ffffffffffffffffffffffffffffffffffffffff1663150b7a02611d78611474565b8786866040518563ffffffff1660e01b8152600401611d9a94939291906131e1565b6020604051808303815f875af1925050508015611dd557506040513d601f19601f82011682018060405250810190611dd2919061323f565b60015b611e54573d805f8114611e03576040519150601f19603f3d011682016040523d82523d5f602084013e611e08565b606091505b505f815103611e4c576040517f08c379a0000000000000000000000000000000000000000000000000000000008152600401611e4390613171565b60405180910390fd5b805181602001fd5b63150b7a0260e01b7bffffffffffffffffffffffffffffffffffffffffffffffffffffffff1916817bffffffffffffffffffffffffffffffffffffffffffffffffffffffff191614915050611ea9565b600190505b949350505050565b5f805f90507a184f03e93ff9f4daa797ed6e38ed64bf6a1f0100000000000000008310611f0d577a184f03e93ff9f4daa797ed6e38ed64bf6a1f0100000000000000008381611f0357611f02612a2a565b5b0492506040810190505b6d04ee2d6d415b85acef81000000008310611f4a576d04ee2d6d415b85acef81000000008381611f4057611f3f612a2a565b5b0492506020810190505b662386f26fc100008310611f7957662386f26fc100008381611f6f57611f6e612a2a565b5b0492506010810190505b6305f5e1008310611fa2576305f5e1008381611f9857611f97612a2a565b5b0492506008810190505b6127108310611fc7576127108381611fbd57611fbc612a2a565b5b0492506004810190505b60648310611fea5760648381611fe057611fdf612a2a565b5b0492506002810190505b600a8310611ff9576001810190505b80915050919050565b5f808273ffffffffffffffffffffffffffffffffffffffff163b119050919050565b5f604051905090565b5f80fd5b5f80fd5b5f7fffffffff0000000000000000000000000000000000000000000000000000000082169050919050565b61206981612035565b8114612073575f80fd5b50565b5f8135905061208481612060565b92915050565b5f6020828403121561209f5761209e61202d565b5b5f6120ac84828501612076565b91505092915050565b5f8115159050919050565b6120c9816120b5565b82525050565b5f6020820190506120e25f8301846120c0565b92915050565b5f81519050919050565b5f82825260208201905092915050565b5f5b8381101561211f578082015181840152602081019050612104565b5f8484015250505050565b5f601f19601f8301169050919050565b5f612144826120e8565b61214e81856120f2565b935061215e818560208601612102565b6121678161212a565b840191505092915050565b5f6020820190508181035f83015261218a818461213a565b905092915050565b5f819050919050565b6121a481612192565b81146121ae575f80fd5b50565b5f813590506121bf8161219b565b92915050565b5f602082840312156121da576121d961202d565b5b5f6121e7848285016121b1565b91505092915050565b5f73ffffffffffffffffffffffffffffffffffffffff82169050919050565b5f612219826121f0565b9050919050565b6122298161220f565b82525050565b5f6020820190506122425f830184612220565b92915050565b6122518161220f565b811461225b575f80fd5b50565b5f8135905061226c81612248565b92915050565b5f602082840312156122875761228661202d565b5b5f6122948482850161225e565b91505092915050565b6122a681612192565b82525050565b5f6020820190506122bf5f83018461229d565b92915050565b5f80604083850312156122db576122da61202d565b5b5f6122e88582860161225e565b92505060206122f9858286016121b1565b9150509250929050565b5f805f6060848603121561231a5761231961202d565b5b5f6123278682870161225e565b93505060206123388682870161225e565b9250506040612349868287016121b1565b9150509250925092565b5f6040820190508181035f83015261236b818561213a565b905061237a602083018461229d565b9392505050565b5f80fd5b5f80fd5b7f4e487b71000000000000000000000000000000000000000000000000000000005f52604160045260245ffd5b6123bf8261212a565b810181811067ffffffffffffffff821117156123de576123dd612389565b5b80604052505050565b5f6123f0612024565b90506123fc82826123b6565b919050565b5f67ffffffffffffffff82111561241b5761241a612389565b5b6124248261212a565b9050602081019050919050565b828183375f83830152505050565b5f61245161244c84612401565b6123e7565b90508281526020810184848401111561246d5761246c612385565b5b612478848285612431565b509392505050565b5f82601f83011261249457612493612381565b5b81356124a484826020860161243f565b91505092915050565b5f60ff82169050919050565b6124c2816124ad565b81146124cc575f80fd5b50565b5f813590506124dd816124b9565b92915050565b5f805f606084860312156124fa576124f961202d565b5b5f84013567ffffffffffffffff81111561251757612516612031565b5b61252386828701612480565b93505060206125348682870161225e565b9250506040612545868287016124cf565b9150509250925092565b612558816120b5565b8114612562575f80fd5b50565b5f813590506125738161254f565b92915050565b5f806040838503121561258f5761258e61202d565b5b5f61259c8582860161225e565b92505060206125ad85828601612565565b9150509250929050565b5f6060820190508181035f8301526125cf818661213a565b90506125de602083018561229d565b6125eb604083018461229d565b949350505050565b5f67ffffffffffffffff82111561260d5761260c612389565b5b6126168261212a565b9050602081019050919050565b5f612635612630846125f3565b6123e7565b90508281526020810184848401111561265157612650612385565b5b61265c848285612431565b509392505050565b5f82601f83011261267857612677612381565b5b8135612688848260208601612623565b91505092915050565b5f805f80608085870312156126a9576126a861202d565b5b5f6126b68782880161225e565b94505060206126c78782880161225e565b93505060406126d8878288016121b1565b925050606085013567ffffffffffffffff8111156126f9576126f8612031565b5b61270587828801612664565b91505092959194509250565b5f80604083850312156127275761272661202d565b5b5f6127348582860161225e565b92505060206127458582860161225e565b9150509250929050565b7f4e487b71000000000000000000000000000000000000000000000000000000005f52602260045260245ffd5b5f600282049050600182168061279357607f821691505b6020821081036127a6576127a561274f565b5b50919050565b7f4e487b71000000000000000000000000000000000000000000000000000000005f52603260045260245ffd5b7f4e487b71000000000000000000000000000000000000000000000000000000005f52601160045260245ffd5b5f61281082612192565b91507fffffffffffffffffffffffffffffffffffffffffffffffffffffffffffffffff8203612842576128416127d9565b5b600182019050919050565b7f4552433732313a20617070726f76616c20746f2063757272656e74206f776e655f8201527f7200000000000000000000000000000000000000000000000000000000000000602082015250565b5f6128a76021836120f2565b91506128b28261284d565b604082019050919050565b5f6020820190508181035f8301526128d48161289b565b9050919050565b7f4552433732313a20617070726f76652063616c6c6572206973206e6f7420746f5f8201527f6b656e206f776e6572206f7220617070726f76656420666f7220616c6c000000602082015250565b5f612935603d836120f2565b9150612940826128db565b604082019050919050565b5f6020820190508181035f83015261296281612929565b9050919050565b7f4552433732313a2063616c6c6572206973206e6f7420746f6b656e206f776e655f8201527f72206f7220617070726f76656400000000000000000000000000000000000000602082015250565b5f6129c3602d836120f2565b91506129ce82612969565b604082019050919050565b5f6020820190508181035f8301526129f0816129b7565b9050919050565b5f612a0182612192565b9150612a0c83612192565b9250828201905080821115612a2457612a236127d9565b5b92915050565b7f4e487b71000000000000000000000000000000000000000000000000000000005f52601260045260245ffd5b5f612a6182612192565b9150612a6c83612192565b925082612a7c57612a7b612a2a565b5b828204905092915050565b7f4552433732313a20696e76616c696420746f6b656e20494400000000000000005f82015250565b5f612abb6018836120f2565b9150612ac682612a87565b602082019050919050565b5f6020820190508181035f830152612ae881612aaf565b9050919050565b7f4552433732313a2061646472657373207a65726f206973206e6f7420612076615f8201527f6c6964206f776e65720000000000000000000000000000000000000000000000602082015250565b5f612b496029836120f2565b9150612b5482612aef565b604082019050919050565b5f6020820190508181035f830152612b7681612b3d565b9050919050565b5f819050815f5260205f209050919050565b5f6020601f8301049050919050565b5f82821b905092915050565b5f60088302612bd97fffffffffffffffffffffffffffffffffffffffffffffffffffffffffffffffff82612b9e565b612be38683612b9e565b95508019841693508086168417925050509392505050565b5f819050919050565b5f612c1e612c19612c1484612192565b612bfb565b612192565b9050919050565b5f819050919050565b612c3783612c04565b612c4b612c4382612c25565b848454612baa565b825550505050565b5f90565b612c5f612c53565b612c6a818484612c2e565b505050565b5b81811015612c8d57612c825f82612c57565b600181019050612c70565b5050565b601f821115612cd257612ca381612b7d565b612cac84612b8f565b81016020851015612cbb578190505b612ccf612cc785612b8f565b830182612c6f565b50505b505050565b5f82821c905092915050565b5f612cf25f1984600802612cd7565b1980831691505092915050565b5f612d0a8383612ce3565b9150826002028217905092915050565b612d23826120e8565b67ffffffffffffffff811115612d3c57612d3b612389565b5b612d46825461277c565b612d51828285612c91565b5f60209050601f831160018114612d82575f8415612d70578287015190505b612d7a8582612cff565b865550612de1565b601f198416612d9086612b7d565b5f5b82811015612db757848901518255600182019150602085019450602081019050612d92565b86831015612dd45784890151612dd0601f891682612ce3565b8355505b6001600288020188555050505b505050505050565b5f81905092915050565b5f612dfd826120e8565b612e078185612de9565b9350612e17818560208601612102565b80840191505092915050565b5f612e2e8285612df3565b9150612e3a8284612df3565b91508190509392505050565b7f4f776e61626c653a206e6577206f776e657220697320746865207a65726f20615f8201527f6464726573730000000000000000000000000000000000000000000000000000602082015250565b5f612ea06026836120f2565b9150612eab82612e46565b604082019050919050565b5f6020820190508181035f830152612ecd81612e94565b9050919050565b7f4552433732313a207472616e736665722066726f6d20696e636f7272656374205f8201527f6f776e6572000000000000000000000000000000000000000000000000000000602082015250565b5f612f2e6025836120f2565b9150612f3982612ed4565b604082019050919050565b5f6020820190508181035f830152612f5b81612f22565b9050919050565b7f4552433732313a207472616e7366657220746f20746865207a65726f206164645f8201527f7265737300000000000000000000000000000000000000000000000000000000602082015250565b5f612fbc6024836120f2565b9150612fc782612f62565b604082019050919050565b5f6020820190508181035f830152612fe981612fb0565b9050919050565b7f4f776e61626c653a2063616c6c6572206973206e6f7420746865206f776e65725f82015250565b5f6130246020836120f2565b915061302f82612ff0565b602082019050919050565b5f6020820190508181035f83015261305181613018565b9050919050565b5f61306282612192565b915061306d83612192565b925082820261307b81612192565b91508282048414831517613092576130916127d9565b5b5092915050565b7f4552433732313a20617070726f766520746f2063616c6c6572000000000000005f82015250565b5f6130cd6019836120f2565b91506130d882613099565b602082019050919050565b5f6020820190508181035f8301526130fa816130c1565b9050919050565b7f4552433732313a207472616e7366657220746f206e6f6e2045524337323152655f8201527f63656976657220696d706c656d656e7465720000000000000000000000000000602082015250565b5f61315b6032836120f2565b915061316682613101565b604082019050919050565b5f6020820190508181035f8301526131888161314f565b9050919050565b5f81519050919050565b5f82825260208201905092915050565b5f6131b38261318f565b6131bd8185613199565b93506131cd818560208601612102565b6131d68161212a565b840191505092915050565b5f6080820190506131f45f830187612220565b6132016020830186612220565b61320e604083018561229d565b818103606083015261322081846131a9565b905095945050505050565b5f8151905061323981612060565b92915050565b5f602082840312156132545761325361202d565b5b5f6132618482850161322b565b9150509291505056fea264697066735822122065e59086bc92d221f79d708f1e140b77d73c1f9fbf0e16160b48d1abbd9a2d0564736f6c63430008140033",
  "immutableReferences": {},
  "source": "// SPDX-License-Identifier: MIT\npragma solidity ^0.8.0;\n\nimport \"@openzeppelin/contracts/token/ERC721/ERC721.sol\";\nimport \"@openzeppelin/contracts/utils/Counters.sol\";\nimport \"@openzeppelin/contracts/access/Ownable.sol\";\nimport \"@openzeppelin/contracts/utils/math/SafeMath.sol\";\n\ncontract GradCoin is ERC721, Ownable {\n    using SafeMath for uint256;\n\n    struct StudentDetails {\n        string name;\n        uint256 cgpa;\n        uint256 tokenBalance;\n    }\n\n    mapping(address => StudentDetails) public students;\n    address[] private studentAddresses;\n\n    uint256 public highestCGPA;\n    address public BestStudent;\n    address public professor;\n\n    constructor() ERC721(\"GradCoin\", \"GC\") {\n        professor = msg.sender;\n    }\n\n    // Modifier\n    // Only Professor modifier\n    modifier onlyProfessor() {\n        require(msg.sender == professor, \"Only the professor can perform this action\");\n        _;\n    }\n\n    // Only Professor can award tokens to students\n    function GradCoinTransfer(string memory name, address studentAddress, uint8 cgpa) public {\n\n        uint256 tokens = 0;\n\n        if (cgpa >= 3) {\n            tokens = uint256(cgpa).mul(10).mul(10**14); // 1 token = 0.0001 ETH\n        } else if ((cgpa >= 2) && (cgpa < 3)) {\n            tokens = uint256(cgpa).mul(7).mul(10**14);\n        } else if ((cgpa >= 1) && (cgpa < 2)) {\n            tokens = uint256(cgpa).mul(5).mul(10**14);\n        } else {\n            tokens = uint256(cgpa).mul(20).mul(10**14);\n        }\n\n        // Check if the student already exists in the mapping\n        if (students[studentAddress].cgpa > 0) {\n            students[studentAddress].tokenBalance = students[studentAddress].tokenBalance.add(tokens);\n        } else {\n            students[studentAddress] = StudentDetails(name, cgpa, tokens);\n            studentAddresses.push(studentAddress);\n        }\n\n        if (cgpa > highestCGPA) {\n            highestCGPA = cgpa;\n            BestStudent = studentAddress;\n        }\n    }\n\n    function getStudentBalance(address studentAddress) public view returns (uint256 GradCoin) {\n        uint256 totalBalance = 0;\n\n        for (uint i = 0; i < studentAddresses.length; i++) {\n            address addr = studentAddresses[i];\n            if (addr == studentAddress) {\n                totalBalance = totalBalance.add(students[addr].tokenBalance);\n            }\n        }\n\n        return totalBalance;\n    }\n\n        function getHighestCGPA() public view returns (uint256) {\n        return highestCGPA;\n    }\n\n    function getBestStudent() public view returns (string memory, uint256) {\n        uint256 highestCGPA = 0;\n        address bestStudentAddress;\n\n        for (uint256 i = 0; i < studentAddresses.length; i++) {\n            address studentAddress = studentAddresses[i];\n            uint256 cgpa = students[studentAddress].cgpa;\n            if (cgpa > highestCGPA) {\n                highestCGPA = cgpa;\n                bestStudentAddress = studentAddress;\n                }\n                }\n        return (students[bestStudentAddress].name, highestCGPA);\n    }\n\n    function getAverageCGPA() public view returns (uint256) {\n        uint256 sum = 0;\n        for (uint i = 0; i < studentAddresses.length; i++) {\n            sum += students[studentAddresses[i]].cgpa;\n    }\n        return sum / studentAddresses.length;\n    }\n}",
  "sourcePath": "D:\\UB CSE\\GradCoin Project\\GradCoin - Blockchain project\\GradCoin - Contracts\\contracts\\GradCoin.sol",
  "compiler": {
    "name": "solc",
    "version": "0.8.20+commit.a1b79de6.Emscripten.clang"
  },
  "schemaVersion": "3.4.13",
  "updatedAt": "2023-05-11T21:42:39.891Z",
  "networkType": "ethereum",
  "devdoc": {
    "events": {
      "Approval(address,address,uint256)": {
        "details": "Emitted when `owner` enables `approved` to manage the `tokenId` token."
      },
      "ApprovalForAll(address,address,bool)": {
        "details": "Emitted when `owner` enables or disables (`approved`) `operator` to manage all of its assets."
      },
      "Transfer(address,address,uint256)": {
        "details": "Emitted when `tokenId` token is transferred from `from` to `to`."
      }
    },
    "kind": "dev",
    "methods": {
      "approve(address,uint256)": {
        "details": "See {IERC721-approve}."
      },
      "balanceOf(address)": {
        "details": "See {IERC721-balanceOf}."
      },
      "getApproved(uint256)": {
        "details": "See {IERC721-getApproved}."
      },
      "isApprovedForAll(address,address)": {
        "details": "See {IERC721-isApprovedForAll}."
      },
      "name()": {
        "details": "See {IERC721Metadata-name}."
      },
      "owner()": {
        "details": "Returns the address of the current owner."
      },
      "ownerOf(uint256)": {
        "details": "See {IERC721-ownerOf}."
      },
      "renounceOwnership()": {
        "details": "Leaves the contract without owner. It will not be possible to call `onlyOwner` functions anymore. Can only be called by the current owner. NOTE: Renouncing ownership will leave the contract without an owner, thereby removing any functionality that is only available to the owner."
      },
      "safeTransferFrom(address,address,uint256)": {
        "details": "See {IERC721-safeTransferFrom}."
      },
      "safeTransferFrom(address,address,uint256,bytes)": {
        "details": "See {IERC721-safeTransferFrom}."
      },
      "setApprovalForAll(address,bool)": {
        "details": "See {IERC721-setApprovalForAll}."
      },
      "supportsInterface(bytes4)": {
        "details": "See {IERC165-supportsInterface}."
      },
      "symbol()": {
        "details": "See {IERC721Metadata-symbol}."
      },
      "tokenURI(uint256)": {
        "details": "See {IERC721Metadata-tokenURI}."
      },
      "transferFrom(address,address,uint256)": {
        "details": "See {IERC721-transferFrom}."
      },
      "transferOwnership(address)": {
        "details": "Transfers ownership of the contract to a new account (`newOwner`). Can only be called by the current owner."
      }
    },
    "version": 1
  },
  "userdoc": {
    "kind": "user",
    "methods": {},
    "version": 1
  }
}